:020000020000FC
:020000000EC030
:10001C0025C00FEF1FEF2FEF3FEF4FEF50E060E0E9
:10002C0070E080E080E080BD83E289B986E880BD25
:10003C0088E18AB98FEF87BB88BB88E08EBF8FE5DC
:10004C008DBF84E58BBD80E68ABD8CE08EBD80E1E2
:10005C0089BF8FEF87BB88BB7894FFCFCFB609D011
:10006C00543020F40C943A00CFBE189557D00C9411
:10007C003A00503099F0513099F0523099F0533099
:10008C0099F0543099F0553099F0563099F057302A
:10009C0099F0583099F0593099F0089563D008953B
:1000AC007DD0089595D00895ABD00895C2D0089511
:1000BC00D8D00895F0D0089506D108950AD10895A6
:1000CC00FFDF0895763038F4703061F069F46230F7
:1000DC0028F431F008955395772708956395089582
:1000EC00662708957395089577270895031709F0E7
:1000FC000895141709F0089581E008952395239528
:10010C002395239523952395239523952395239523
:10011C0023952D3308F4089521E0089523952D336C
:10012C0028F4089513951D3380F40895139521E058
:10013C001D3358F4089543954D3308F4089541E068
:10014C0008950395293150F40895039511E0093170
:10015C0028F408953395093118F4089501E00895B1
:10016C0031E0089512D014D016D007D10095109517
:10017C002095A8DF08950E948D010E948D0108959D
:10018C000E9490010E94900108950F3FA1F3C1F7C6
:10019C001F3F89F3A9F72F3F71F391F70BD0F0DFD5
:1001AC00EFDFEBD00E946800613010F499DF089506
:1001BC00C8DF08950F3F21F0003031F0EED00895E4
:1001CC0000950E94C600089500950E94C6000895EF
:1001DC00E4D007D0D5DFD1D075DF613038F480DFC3
:1001EC0008951F3F29F0103039F0DAD09BDF0895C5
:1001FC0010950E94C600089510950E94C60008959F
:10020C00CCD0CED006D0B9D05DDF613040F468DF01
:10021C0008952F3F31F0203041F0C5D008956EDFA6
:10022C00089520950E94C600089520950E94C6004E
:10023C00089507D009D09FDF9ED03095409542DFBE
:10024C0008953F3F21F041F44F3F09F029F40E94FB
:10025C008D010E948D0108950E9490010E949001D1
:10026C0008950BD08DDF87DF86D00E946800613047
:10027C0010F436DF08956EDF08953F3F21F03030E3
:10028C0031F094D0089530950E94C60008953095B1
:10029C000E94C60008958AD007D0DEDF6CD012DF32
:1002AC00613038F41DDF08954F3F29F0403039F0AC
:1002BC0080D041DF089540950E94C6000895409576
:1002CC000E94C6000895FECE6130E0F4B9F455C02A
:1002DC000895F8DE02D004D00895613098F471F4DA
:1002EC0080E00E947C00803009F019F40E94C1016A
:1002FC0008950E94C701089557E008954ED050D03C
:10030C0052D0089553D055D002D001D0089580E03A
:10031C0082BB089587E782BB089584E282BB08956F
:10032C008DE582BB08958DE682BB08958EE282BB7B
:10033C0008958BE682BB08958BE782BB089585E216
:10034C0082BB08958FE782BB08958FE682BB089528
:10035C008D3519F38D3621F38E3229F38B3631F32B
:10036C008B3739F3853241F38F3749F38F3651F39D
:10037C008A3059F3089587E082BB86E082BB80E027
:10038C0082BB8FE082BB81E082BB08958A3004F48B
:10039C008A5093950C94CC010895802FF7CF089533
:1003AC00812FF4CF0895822FF1CF0895832FEECFB4
:0803BC000895842FEBCF089592
:00000001FF
