:020000020000FC
:020000000EC030
:10001C0025C00FEF1FEF2FEF3FEF4FEF50E060E0E9
:10002C0070E080E0AFEF80E080BD83E289B986E8C4
:10003C0080BD88E18AB988278ABB88E08EBF8FE5AE
:10004C008DBF84E58BBD80E68ABD8CE08EBD80E1E2
:10005C0089BF8FEF87BB88BB7894FFCFCFB6A095B5
:10006C000DD01CD0543020F40C943C00CFBE18950D
:10007C00AF3F09F0FBCF61D00C943C0089B3809565
:10008C00803019F460E070E0089580FD03C081FDBC
:10009C0003C008956395089573950895503099F0B1
:1000AC00513099F0523099F0533099F0543099F016
:1000BC00553099F0563099F0573099F0583099F0F6
:1000CC00593098F4089567D0089581D00895A7D039
:1000DC000895CDD00895F3D0089509D108952FD166
:1000EC00089555D108955DD108956ED1089572305B
:1000FC0009F008955395089563950895662708951A
:10010C007395089577270895031709F00895141728
:10011C0009F0089581E008952F3F69F02395239508
:10012C002395239523952395239523952395239503
:10013C002D3308F4089521E0089523952D3348F4C8
:10014C0008951F3F21F013951D3308F4089511E015
:10015C000895139521E01D3378F408954F3F21F055
:10016C0043954D3308F4089541E008950F3F79F01D
:10017C000395093160F40895039511E0093138F4C1
:10018C0008953F3F31F03395393118F4089501E06B
:10019C00089531E0089512D014D016D05DD1009599
:1001AC0010952095A4DF08950E94F6010E94F60197
:1001BC0008950E94F9010E94F90108950F3FA1F3DF
:1001CC00C1F71F3F89F3A9F72F3F71F391F78FDF29
:1001DC0005D00BD0EEDFEDDF3FD10895623018F47F
:1001EC005230B9F00895C2DF08950F3F51F000303E
:1001FC0061F0A03011F051D1089580FD4EC1D4DFD3
:10020C00089500950E94DA00089500950E94DF0081
:10021C000895003019F00F3F09F0089501E067DFF1
:10022C0005D03BD108D0C5DF17D10895623078F4E2
:10023C005330B9F008951F3F61F0103071F0AF3FAB
:10024C0011F02ED1089580FD2BC1AEDF089579DF1A
:10025C00089510950E94DA00089510950E94DF0011
:10026C000895103019F01F3F09F0089511E03FDF99
:10027C0005D013D115D107D0EFD00895623078F4A2
:10028C005430B9F008952F3F61F0203071F0AF3F3A
:10029C0011F009D1089580FD06C186DF08953CDF79
:1002AC00089520950E94DA00089520950E94DF00A1
:1002BC000895203019F02F3F09F0089521E007D060
:1002CC0009D072DFC6D03095409511DF08953F3FBD
:1002DC0021F041F44F3F09F029F40E94F6010E94ED
:1002EC00F60108950E94F9010E94F9010895FFDEBC
:1002FC0005D00FD05EDF58DFACD00895623018F413
:10030C005630B9F008953DDF089580FDCFC04CDF25
:10031C0008953F3F31F0303041F0AF3FB1F3C6D0DC
:10032C00089530950E94DA00089530950E94DF0000
:10033C000895303019F03F3F09F0089531E0D7DED1
:10034C0005D0B4D008D030DF84D00895613078F473
:10035C005730B9F008954F3F61F0403071F0AF3F26
:10036C0011F0A7D0089580FDA4C01EDF0895F6DE1D
:10037C00089540950E94DA00089540950E94DF0090
:10038C000895403019F04F3F09F0089541E0AFDE79
:10039C00613008F411F41FD002C019D000C05CD039
:1003AC000895A5DE02D004D008956130A0F479F44C
:1003BC0080E00E948A00803009F019F40E942C021F
:1003CC0008950E943802089557E0E1DF089565D042
:1003DC0067D069D008956AD06CD002D001D008954E
:1003EC0090E06AD0089597E767D0089594E264D0BE
:1003FC0008959DE561D008959DE65ED008959EE236
:10040C005BD008959BE658D008959BE755D008958E
:10041C0095E252D008959FE74FD008959FE64CD0B7
:10042C000895903001F3913009F3923011F3933029
:10043C0019F3943021F3953029F3963031F397303A
:10044C0039F3983041F3993049F3089597E034D05B
:10045C00089595E031D0089596E02ED0089590E05F
:10046C002BD008959FE028D0089591E025D00895D1
:10047C0099278A9500C08A3008F438F08A3008F43D
:10048C0040F08A509395FACF0895ADDF982FC9DFCD
:10049C000895C7DF982FC5DF0895802FE9CF089501
:1004AC00812FE6CF0895822FE3CF0895832FE0CFDD
:1004BC000895842FDDCF08955D9BFECF9CB90895E0
:00000001FF
