:020000020000FC
:020000000EC030
:10001C0028C00FEF1FEF2FEF3FEF4FEF50E060E0E6
:10002C0070E080E080E080BD83E289B986E880BD25
:10003C0088E18AB988278ABB88E08EBF8FE58DBF9F
:10004C0084E58BBD80E68ABD8CE08EBD80E189BFE6
:10005C008FEF87BB88BB7894FFCF5D9BFECF8CB9AD
:10006C000895CFB60AD019D0543020F40C943E0029
:10007C00CFBE189561D00C943E0089B3809580302A
:10008C0019F460E070E0089580FD03C081FD03C0A9
:10009C0008956395089573950895503099F05130F3
:1000AC0099F0523099F0533099F0543099F0553012
:1000BC0099F0563099F0573099F0583099F05930F2
:1000CC0098F408955DD0089577D008958DD0089553
:1000DC00A3D00895BAD00895D0D00895E8D008954B
:1000EC00FED0089502D10895FFDF0895763009F00F
:1000FC000895539577270895639508956627089575
:10010C007395089577270895031709F00895141728
:10011C0009F0089581E0089523952395239523955F
:10012C0023952395239523952395239523952D335B
:10013C0008F4089521E0089523952D3328F40895AB
:10014C0013951D3380F40895139521E01D3358F455
:10015C00089543954D3308F4089541E008950395AF
:10016C00293150F40895039511E0093128F40895CC
:10017C003395093118F4089501E0089531E008959C
:10018C0012D014D016D006D1009510952095AEDF64
:10019C0008950E9499010E94990108950E949C0162
:1001AC000E949C0108950F3FA1F3C1F71F3F89F3F3
:1001BC00A9F72F3F71F391F709D0F0DFEFDFEAD009
:1001CC0095DF623008F40895CADF08950F3F21F0DF
:1001DC00003031F0F2D0089500950E94CF000895C0
:1001EC0000950E94D4000895E8D007D0D7DFD2D074
:1001FC007DDF613038F482DF08951F3F29F0103025
:10020C0039F0DED09DDF089510950E94D40008953A
:10021C0010950E94D4000895D0D0D2D006D0BAD078
:10022C0065DF613040F46ADF08952F3F31F02030F4
:10023C0041F0C9D0089570DF089520950E94D40034
:10024C00089520950E94D400089507D009D0A1DF0D
:10025C009ED0309540954ADF08953F3F21F041F400
:10026C004F3F09F029F40E9499010E9499010895C9
:10027C000E949C010E949C0108950BD08FDF89DFA6
:10028C0086D00E947C00613010F438DF089570DF56
:10029C0008953F3F21F0303031F098D008953095DB
:1002AC000E94D400089530950E94D40008958ED0F9
:1002BC0007D0DEDF6CD01ADF613038F41FDF089511
:1002CC004F3F29F0403039F084D043DF08954095FA
:1002DC000E94D400089540950E94D400089506CF42
:1002EC006130E0F4B9F456C0089500DF02D004D0B8
:1002FC000895613098F471F480E00E948A00803097
:10030C0009F019F40E94CD0108950E94D6010895B8
:10031C0057E0089552D054D056D0089557D059D0A4
:10032C0002D001D0089580E098DE089587E795DE2D
:10033C00089584E292DE08958DE58FDE08958DE6B2
:10034C008CDE08958EE289DE08958BE686DE0895B4
:10035C008BE783DE089585E280DE08958FE77DDEEE
:10036C0008958FE67ADE0895823019F3833021F3F5
:10037C00843029F3853031F3863039F3873041F3FB
:10038C00883049F3893051F38A3059F3089587E066
:10039C0064DE089586E061DE089580E05EDE0895F7
:1003AC008FE05BDE089581E058DE08958A3004F416
:1003BC008A5093950C94DC010895802FF7CF089503
:1003CC00812FF4CF0895822FF1CF0895832FEECF94
:0803DC000895842FEBCF089572
:00000001FF
