:020000020000FC
:020000000EC030
:10001C0028C00FEF1FEF2FEF3FEF4FEF50E060E0E6
:10002C0070E080E080E080BD83E289B986E880BD25
:10003C0088E18AB988278ABB88E08EBF8FE58DBF9F
:10004C0084E58BBD80E68ABD8CE08EBD80E189BFE6
:10005C008FEF87BB88BB7894FFCF5D9BFECF8CB9AD
:10006C000895CFB60AD019D0543020F40C943E0029
:10007C00CFBE189561D00C943E0089B3809580302A
:10008C0019F460E070E0089580FD03C081FD03C0A9
:10009C0008956395089573950895503099F05130F3
:1000AC0099F0523099F0533099F0543099F0553012
:1000BC0099F0563099F0573099F0583099F05930F2
:1000CC0098F408955DD0089577D008958ED0089552
:1000DC00A4D00895BBD00895D1D00895E9D0089547
:1000EC00FFD0089503D10895FFDF0895733008F40D
:1000FC000895539577270895639508956627089575
:10010C007395089577270895031709F00895141728
:10011C0009F0089581E0089523952395239523955F
:10012C0023952395239523952395239523952D335B
:10013C0008F4089521E0089523952D3328F40895AB
:10014C0013951D3380F40895139521E01D3358F455
:10015C00089543954D3308F4089541E008950395AF
:10016C00093150F40895039511E0093128F40895EC
:10017C003395093118F4089501E0089531E008959C
:10018C0012D014D016D009D1009510952095AEDF61
:10019C0008950E949A010E949A0108950E949D015F
:1001AC000E949D0108950F3FA1F3C1F71F3F89F3F2
:1001BC00A9F72F3F71F391F702E009D0EFDFEEDFE3
:1001CC00ECD094DF613008F40895C9DF08950F3F37
:1001DC0021F0003031F002D1089500950E94CF003B
:1001EC00089500950E94D4000895F8D007D0D6DF6A
:1001FC00D4D07CDF613038F481DF08951F3F29F0C3
:10020C00103039F0EED09CDF089510950E94D40088
:10021C00089510950E94D4000895E0D0E2D006D045
:10022C00BCD064DF613040F469DF08952F3F31F0BA
:10023C00203041F0D9D008956FDF089520950E94A9
:10024C00D400089520950E94D400089507D009D0B9
:10025C00A0DFA0D03095409549DF08953F3F21F0B5
:10026C0041F44F3F09F029F40E949A010E949A012F
:10027C0008950E949D010E949D0108950BD08EDF70
:10028C0088DF88D00E947C00613010F437DF08953D
:10029C006FDF08953F3F21F0303031F0A8D0089542
:1002AC0030950E94D400089530950E94D400089592
:1002BC009ED007D0DEDF6ED019DF613038F41EDF40
:1002CC0008954F3F29F0403039F094D042DF089523
:1002DC0040950E94D400089540950E94D400089542
:1002EC0005CF6130E0F4B9F458C00895FFDE02D0B8
:1002FC0004D00895613098F471F480E00E948A0073
:10030C00803009F019F40E94D00108950E94D9019F
:10031C00089557E0089562D064D066D0089567D0F0
:10032C0069D002D001D0089580E097DE089587E768
:10033C0094DE089584E291DE08958DE58EDE0895B5
:10034C008DE68BDE08958EE288DE08958BE685DEE1
:10035C0008958BE782DE089585E27FDE08958FE7AE
:10036C007CDE08958FE679DE0895813001F38230CA
:10037C0009F3833011F3843019F3853021F386307F
:10038C0029F3873031F3883039F3893041F38A30DF
:10039C0049F3089587E061DE089586E05EDE0895F6
:1003AC0080E05BDE08958FE058DE089581E055DE35
:1003BC00089599270C94E2018A3008F440F08A30B1
:1003CC0008F440F08A5093950C94E2010895AFDF45
:1003DC00CCDF0895CADF892FC8DF0895802FE9CFBD
:1003EC000895812FE6CF0895822FE3CF0895832FB0
:0A03FC00E0CF0895842FDDCF0895AF
:00000001FF
